:020000040800F2
:1000000000100020A9380008410600084306000837
:1000100000000000000000000000000000000000E0
:10002000000000000000000000000000450600087D
:100030000000000000000000470600084906000814
:10004000F938000800000000F9380008F938000805
:10005000F9380008F9380008F9380008F9380008BC
:100060000000000051060008F9380008F9380008BF
:10007000F9380008F9380008F938000800000000D5
:10008000F9380008000000000000000061060008C8
:1000900000000000F9380008F9380008F9380008B5
:1000A00000000000F938000800000000F9380008DE
:1000B0000000000000000000000000000000000040
:1000C00010B5064C2378002B07D1054B002B02D02E
:1000D000044800E000BF0123237010BD7001002020
:1000E0000000000084410008044B10B5002B03D031
:1000F0000349044800E000BF10BDC04600000000F6
:10010000740100208441000802B471464908490086
:10011000095C49008E4402BC7047C0460022430877
:100120008B4274D303098B425FD3030A8B4244D3BF
:10013000030B8B4228D3030C8B420DD3FF22090201
:1001400012BA030C8B4202D31212090265D0030BC0
:100150008B4219D300E0090AC30B8B4201D3CB03B6
:10016000C01A5241830B8B4201D38B03C01A5241F8
:10017000430B8B4201D34B03C01A5241030B8B42FA
:1001800001D30B03C01A5241C30A8B4201D3CB02E5
:10019000C01A5241830A8B4201D38B02C01A5241CA
:1001A000430A8B4201D34B02C01A5241030A8B42CD
:1001B00001D30B02C01A5241CDD2C3098B4201D3E5
:1001C000CB01C01A524183098B4201D38B01C01A63
:1001D000524143098B4201D34B01C01A52410309DA
:1001E0008B4201D30B01C01A5241C3088B4201D389
:1001F000CB00C01A524183088B4201D38B00C01A36
:10020000524143088B4201D34B00C01A5241411A5C
:1002100000D20146524110467047FFE701B5002069
:1002200000F006F802BDC0460029F7D076E7704717
:100230007047C04630B585B00C22002101A803F0FC
:100240009AFB264C264B0822236080236261DB0543
:10025000C222002563600123FF322000A560E56013
:100260002361A561E56123626562A262E5622363A1
:10027000656301F095FDA84201D000F0C7F9802325
:100280005B010293072301A920000195039301F06C
:10029000C3FE002801D000F0B9F9012301A9200014
:1002A000019301F0B9FE002801D000F0AFF902235C
:1002B00001A92000019301F0AFFE002801D000F059
:1002C000A5F9032301A92000019301F0A5FE002850
:1002D00001D000F09BF905B030BDC0463C040020C1
:1002E0000024014070B5050088B01422002103A845
:1002F00003F041FB1C4B2A689A4233D180268021AF
:100300001A4BB6009A69890232439A619A69902021
:1003100032400192019A5A69C0050A435A615B69E9
:100320000B400293029B0F2303A903930C3B0493FE
:1003300001F0FAFF80220E4C0E4BE2608022120187
:10034000236062610023202220006360A360266195
:10035000A261E36101F02CFF002801D000F056F902
:10036000EC63656208B070BD0024014000100240DB
:10037000F80300200800024007B50120084A51692F
:100380000143516153690022034001931100083079
:10039000019B01F0BFFE092001F0E6FE07BDC0464B
:1003A00000100240F0B589B01422002103A803F028
:1003B000E2FA80201E4B800259699C270143596153
:1003C000802190255A69C90202400192019A5A6916
:1003D000ED050A435A615B693F020B40154E0293DB
:1003E000390028000022029B02F054F8002230005D
:1003F000382102F04FF80024302303A9280003938A
:100400000494059401F090FF0397012703A92800A5
:1004100004970594069401F087FF382303A9300060
:10042000039304970594069401F07EFF09B0F0BD94
:10043000001002400004004810B5134B134C012279
:100440002360134B200063600023E260A3602361FC
:100450006361A361E361236202F068F9002801D0BF
:1004600000F0D4F80021200002F02EFB002801D07B
:1004700000F0CCF80021200002F04CFB002801D055
:1004800000F0C4F810BDC0460054004088040020AD
:100490000E09002030B5040089B01422002103A801
:1004A00003F069FA164B22689A4226D180258021F2
:1004B000144CAD03E369C9022B43E361E3691248BD
:1004C0002B400093009B62690A43626163690322C7
:1004D0000B400193019BC0230393AE3B049303A9FC
:1004E000113B05930793069201F01EFFE3692B432E
:1004F000E361E3691D400295029B09B030BDC0462F
:100500000054004000100240000400480748084B17
:1005100010B5036004234360064BC360836002F0A0
:100520001DFB002801D000F071F810BDD40400209C
:1005300000300040FF0F000010B5034A0349044893
:1005400001F00DF810BDC04600050020F8040020A1
:10055000EC04002030B5102495B02C22002109A80D
:1005600003F009FA22000021684603F004FA220091
:10057000002104A803F0FFF912230893A02301250A
:100580000C940E949B030E3C08A80B950D951094AB
:10059000129302F017FB002800D0FEE70723029019
:1005A0000390290068460093019402F021FD002881
:1005B00000D0FEE72023079004A8049302F0B6FDC4
:1005C000002800D0FEE715B030BD000010B501F0E6
:1005D0006DFBFFF7BFFFFFF7E5FEFFF7CDFEFFF76F
:1005E00029FEFFF729FF00F08DF800F0AFF900F0C9
:1005F000C5F8054C200000F00DFAFFF787FF20003A
:1006000000F04EFAFBE7C046E4040020FEE70000DD
:1006100001200A4B82B099690143996180219A694E
:10062000490502400092009ADA690A43DA61DB69FF
:100630000B400193019B02B07047C046001002407E
:100640007047FEE77047704710B501F03FFB10BDE3
:1006500010B5024801F01EFE10BDC046F803002090
:1006600010B5024802F0BFFE10BDC046AC05002028
:100670000A4B10B519680200002901D10849196018
:100680006946186882188A4206D903F037F90C23A4
:1006900003600120404210BD1A60FCE78C0100207D
:1006A000080A00200121114B11481A680A431A60F8
:1006B0005A6802405A601A680E4802401A601A6866
:1006C0000D4802401A605A680C4802400F205A60D8
:1006D000DA6A8243DA621A6B094802401A635A6B7B
:1006E0008A435A6300229A607047C0460010024055
:1006F0000CB8FF08FFFFF6FEFFFFFBFFFFFFC0FF88
:10070000ECFEFFFF30B58DB01C22002104A803F0E1
:1007100032F90822002101A803F02DF9144C154BE1
:10072000154A0221236001230025E2600F22636045
:1007300063610891023303A92000A5602561A561CA
:1007400003930593079209930B9202F067FFA84267
:1007500001D0FFF75BFF01A920000195029503F08E
:100760007FF8002801D0FFF751FF0DB030BDC04623
:100770006C050020002C0140FF0F000009480A4BC7
:1007800010B50360094B372243600023C2608360C9
:100790000361836102F00CFF002801D0FFF736FFF0
:1007A00010BDC046AC050020002000407FBB00000B
:1007B00010B5040088B01422002103A803F0DBF870
:1007C000114B22689A421DD18020104B000199697B
:1007D0000143996180219A69890202400192019A3C
:1007E0005A6990200A435A615B69C0050B40029325
:1007F000029BC0239B000393022303A90493079346
:1008000001F092FD08B010BD002C01400010024024
:1008100030B51E4B026889B09A4234D102251C4C77
:100820000822E36900212B43E361E36905A82B401B
:100830000093009B03F09FF88021626989020A43BC
:100840006261636990200B4080210193019B626982
:10085000C9020A436261636901240B400293029B4F
:10086000C02303A9C00503930495079401F05CFD20
:1008700003230393002303A90648049505930693D5
:10088000079401F051FD09B030BDC046000400409E
:10089000001002400004004807B50B4B02689A4262
:1008A00011D18020094A4000D1690143D161D36947
:1008B000002203400193ED381100019B01F02AFC56
:1008C000132001F051FC07BD002000400010024041
:1008D00030B5040089B01422002103A803F04BF8BE
:1008E000174B22689A4228D18020164B8002596902
:1008F00002250143596180215A69C90202400192CF
:10090000019A5A6990200A435A615B6901240B409D
:100910000293029BC02303A9C00503930495079487
:1009200001F002FD03230393002303A90648049565
:1009300005930693079401F0F7FC09B030BDC0465B
:1009400000040040001002400004004830B58BB0A5
:100950000822002101A803F00EF81C22002103A8A0
:1009600003F009F8284C294B0025236007232000B9
:100970006360F333A560E3602561A56102F033FE97
:10098000A84201D0FFF742FE01A92000019502957F
:1009900002F066FF002801D0FFF738FE0022602336
:1009A00003A92000039304920592079202F0BCFE73
:1009B000002801D0FFF72AFE80230422DB0103A9CF
:1009C0002000049302F0B0FE002801D0FFF71EFEC5
:1009D000802308221B0203A92000049302F0A4FE36
:1009E000002801D0FFF712FE094B0C2203A92000BA
:1009F000049302F099FE002801D0FFF707FE2000C3
:100A0000FFF766FF0BB030BD2C050020000400404E
:100A1000FFFF000070B5040000F0F4FE0C2002F0AF
:100A200097FF20600C2002F093FF220060602100FD
:100A300020001C321431083000F084FD00F07CFAF4
:100A400000F06EFCFA230025124E9B0063613368B0
:100A50002574596A2068C9B200F0C8FC3368606820
:100A6000596AC9B200F0C2FC0B4C2900200002F008
:100A7000F3FE0421200002F0EFFE0821200002F026
:100A8000EBFE0C21200002F0E7FE044802F082FC9D
:100A900070BDC0466C0500202C050020AC05002070
:100AA000032310B5017A027C4B439B18074A9B0035
:100AB0009B5800220272934200D09847044802F0EB
:100AC00079F8002801D0FFF7A1FD10BDCC41000846
:100AD000D4040020036870B51D685C68074B03CB25
:100AE00001F038F82A000721062001F0B3F82200AF
:100AF0001821062001F0AEF870BDC046944D0008E4
:100B00001FB5084B047A03CB01F024F822000649F4
:100B100001A802F0F3FF01AA0F214E2001F080F896
:100B20001FBDC046844D0008FC410008030007B506
:100B30000A0005480549DBB2895C805C00933522D8
:100B4000032300F0C2FF07BD0400002008000020BE
:100B50002E4BF0B51B6885B0596A0400C9B2006815
:100B600000F044FC012500F0BBFE00214023802260
:100B70000800009500F02CFF2068FFF7ABFF20680D
:100B8000FFF7BEFF22002700260023683E321B7AB3
:100B9000029252193C373D360392102B2ED9200079
:100BA0001C3000F046FD029B3D7035701D70039BAC
:100BB0001D70236800201B6808251F7A40233E0013
:100BC0009E4300F058FB0A2001F08EF8300000F040
:100BD00052FB0A2001F088F83000284300F04BFB5C
:100BE000642001F081F82800384300F044FB012321
:100BF0002374FA239B00636105B0F0BD0023029AC1
:100C00003B7033701370039A1370D2E76C050020A9
:100C100010B5036804001A68527AD2070BD5020097
:100C20003C321278012A3CD11879244B00211B68F0
:100C30001864FFF77BFF23681A68527A92070BD576
:100C400022003D321278012A2ED158791B4B012106
:100C50001B689863FFF76AFF23681A68527A520785
:100C60000BD522003E321278012A20D19879134BFD
:100C700002211B68D863FFF759FF23681A68527A6C
:100C800012070BD522003F321278012A12D1D879EF
:100C90000A4B03211B685863FFF748FF00F062FD11
:100CA00010BDC3691809C0E7236A1809CEE7636A53
:100CB0001809DCE7A06A0009EAE7C0462C05002015
:100CC000F0B5076887B03B7A04003C4D102B4ED836
:100CD0002200797A00273A4B1C321B68D86A02300E
:100CE000C0B200F0F5FA364B1B68D86A00F014FC6D
:100CF000334B20681B68596AC9B200F077FB236840
:100D000027742000197A00F049FA040001281DD147
:100D100000F0E6FD8022402339003800009400F006
:100D200057FE03CD00F016FF14211B20254A00F0CA
:100D300077FF00F017FDFA20800000F0D5FF204B70
:100D40001B68586A00F047FA07B0F0BD00F0C8FD14
:100D5000002101238022009308003F3300F038FE79
:100D600003CD00F0F7FE184A14211720DFE7030037
:100D70006A46283343CB43C243CB43C238000027E3
:100D8000E169226A636A00F0EDFA236827742000A3
:100D9000197A00F003FA04000128D7D100F0A0FD71
:100DA0008022402339003800009400F011FE03CD6A
:100DB00000F0D0FE054A14210920B8E78C4D000848
:100DC0006C05002021420008264200082C42000841
:100DD000094B10B51B680400596A4068C9B200F09D
:100DE00005FB64236361623B237400F077FF0023FB
:100DF00060644034237010BD6C05002037B50400DA
:100E000000F06EFD002101232500080000938022E0
:100E10003F3300F0DDFD40356068FFF75BFE2B7867
:100E20001D2B4DD86068FFF76BFE2B7801332B70BC
:100E300063681A68527AD20707D51A7A102A4CD8F2
:100E4000E36918090021FFF771FE63681A68527A96
:100E5000920707D51A7A102A41D8236A1809012166
:100E6000FFF764FE63681A68527A520707D51A7A48
:100E7000102A36D8636A18090221FFF757FE636803
:100E80001A68527A120707D51A7A102A2BD8A36A41
:100E900018090321FFF74AFE00F064FC00F01EFF72
:100EA000636CC01A114B984209D92368187A01382B
:100EB00000F032FB00232374FA239B00636137BDEB
:100EC000312B08D8002328220093162125334F20E8
:100ED00000F052FDA9E70F23A9E71879B2E7587986
:100EE000BDE79879C8E7D879D3E7C04688130000F2
:100EF00010B543680400187A013800F00DFB002398
:100F00002374034B1B68586A00F065F910BDC04696
:100F10006C050020074B10B51B680400596A406837
:100F2000C9B200F063FA00F0D9FE002360644034D7
:100F3000237010BD6C0500209020F0B5202187B0F3
:100F4000C00501F0A1FA012855D0FA20800000F078
:100F5000CBFE90202021C00501F096FA01284AD04E
:100F600001246B460E261C730323664F6E443370B8
:100F70003B68FC60DC62644B03CB00F0EBFD00F0EF
:100F8000BDFC0021402308000094802200F020FDD9
:100F900090245E4A0721212000F05CFE00F0E2FB75
:100FA000E4052021200001F06FFA0028F9D00F2479
:100FB0006C4401222100072000F0D6F82278544921
:100FC00004A802F09BFD04AA1B21392000F028FE92
:100FD0006B461D7BEDB2012D0FD00D236B441B78AA
:100FE000012B00D173E09024E4052021200001F0C2
:100FF0004BFA0028F9D007B0F0BD0D243B686C44D3
:101000005B6ADBB22370227833789A422FD0237840
:10101000DBB2337000F072FC002140230800802214
:10102000009500F0D5FC394A0721212000F012FE7E
:101030002378012B2FD1374A1B210C2000F00AFE08
:1010400004AA1B21392000F0EBFD334A1B215A2052
:1010500000F000FE314A2F21272000F0FBFD0F2376
:10106000202219210B2000F0F5FC00F07BFB9020E2
:101070002021C00501F008FA0028A9D1643000F051
:1010800033FE90202021C00501F0FEF900289FD1F9
:101090006B4618739CE72378002BE6D11D4A1B2171
:1010A0000C2000F0D7FD04AA1B21392000F0B8FD68
:1010B000194A1B215A2000F0CDFD184A2F21272064
:1010C00000F0C8FD19220F2311005920CBE700F0D2
:1010D000C0F800F013FC124A0F21162000F0BAFDF0
:1010E0000024E3B25A222F2113200093082300F09A
:1010F000CBFC013400F036FB022000F0F5FDFF2CA4
:10110000EFD170E76C050020944D00080142000803
:10111000FC410008084200089D4200080C420008FB
:101120001842000830B5130085B00D00102A02D90E
:10113000002005B030BD0124A021C2B2C00920406A
:10114000014364209BB2029001930095230005485F
:1011500001F042FB0028EBD1073000F0C5FD200074
:10116000E7E7C04688040020012330B5A024C5B2BB
:10117000C009184085B0204392B23C3C01920091D6
:10118000029401002A00044801F0E0FB4342584168
:10119000C0B205B030BDC0468804002030B5036839
:1011A00085B05A6802AD02921B890C00AB806B4679
:1011B000D91D23000122103B07200B70FFF7B2FF5F
:1011C00020001138C000C0B20622290080B2FFF70B
:1011D000A9FF05B030BD07B50190B420042201A9D4
:1011E0008000FFF79FFF07BD07B5B420042201A9C7
:1011F0008000FFF7B9FF01980EBD70B588B06B464F
:10120000DE1D012231000720FFF7AEFF00253378F5
:10121000AB4201DC08B070BDE80002ACC0B280B2E5
:1012200006222100FFF7A0FF012810D1237804AA8D
:101230001B01049363781B010593A3781B0106939C
:10124000E3781B0107936179207900F041F80135BB
:10125000DDE71FB510220021684602F08CFB002458
:101260002001C0B280B2102269460134FFF75AFF54
:10127000402CF5D11FBDF8B58025060007240127B5
:101280006D013A008021A24090203240C900C00583
:1012900001F000F9902001222900C00501F0FAF8C0
:1012A000902000222900C00501F0F4F8013CE8D2AA
:1012B0008021902001220901C00501F0EBF8802176
:1012C000902000220901C00501F0E4F8F8BD0000FB
:1012D00070B5104C050023780020622B18D80E48FA
:1012E000C3600668581C207006245C430B48F362F8
:1012F0000319597111681D710909215401205168A0
:10130000090959709168D268090912099970DA704F
:1013100070BDC046900100206C05002091010020A6
:1013200030B585B010220021684602F024FB01256B
:1013300000246A4621002800FFF7CAFF002807D0D2
:101340000F2C0DD00134E4B20135EDB2112DF0D1E6
:10135000FFF753FFFFF748FF00F0DEF805B030BDA0
:101360000024F1E784B0F0B519250691079208939F
:101370006D44047AED7F1100013C1A00099B002D99
:1013800007D10626069D66432D09174FEDB2F55588
:1013900005711A256D44ED7F002D07D106266643A1
:1013A000114D0909C9B2AD19697041711B21694418
:1013B000C97F002907D1062565430B491209D2B21E
:1013C00049198A70827107AAD27F002A07D1063292
:1013D0006243054C1B09DBB2A418E370C371F0BC77
:1013E00008BC04B01847C0469101002010B50D4B51
:1013F00004001B7800208B4213D3062359430A4A6A
:10140000531818792072587960728A5C22715A7860
:1014100062719A78A271DB78E37100F007F82060BE
:10142000012010BD9001002091010020014B80009F
:10143000C0587047CC0000209023DB051A690023B8
:10144000920601D5024A1370037100207047C0460E
:10145000E80300209023DB051B6910B504009B0600
:101460000DD400F03BFC084B1B68C01A236898425F
:1014700008D902220120054B1A70207110BD0022EC
:10148000024B1A700020F8E7E4030020E803002074
:101490009023DB051B6910B504009B0606D40122CE
:1014A000044B1A7000F01AFC034B186000202071E6
:1014B00010BDC046E8030020E403002070B50025FD
:1014C000054B04001D7000F009FC044B25711860E9
:1014D0006423236070BDC046E8030020E4030020BD
:1014E000034B10B51B78034A9B009B58984710BDCF
:1014F000E8030020B8420008054B1A68054B506A03
:101500001968526A401A1A60431E9841C0B2704767
:101510006C050020EC030020024B1B685862024B54
:10152000186070476C050020EC03002010B51821EE
:10153000034801F039FF0020FFF7EEFF10BDC04661
:101540006C050020002310B5140003700800FFF79D
:10155000B5FFFFF7EBFF200000F022F810BD70B5DB
:10156000040008000E001500FFF7BAFF002803D0A2
:1015700001236660237070BDFFF7BEFF002802D014
:1015800002232370F7E7280000F014F8002803D0A6
:10159000032365602370EEE720706060EBE70000D6
:1015A00010B501000422024800F09EFC10BDC046A8
:1015B0003C04002070B5411C0300C87F01280BD1FA
:1015C0001C681A69A21AD51752196A40132A03DD3A
:1015D0001C610023CB7770BD991CC87F012809D1FD
:1015E0005C685A69A21AD51752196A40132A01DD9C
:1015F0005C61EEE7D91CC87F012809D19C689A6913
:10160000A21AD51752196A40132A01DD9C61E0E73E
:101610001C1DE17F00200129DDD1DD68DA69AA1AED
:10162000D61792197240132AD5DDDD61E0770800E4
:10163000D1E7036803614368436183688361C368DA
:10164000C36170470822244B10B544B29A6220212E
:10165000002C30DA99619A619A62202241062CD5D9
:101660009A61082220219A619A62084227D09961E2
:101670009A619A622022C10623D59A61082220210C
:101680009A619A6210421ED099619A619A622022F0
:1016900041071AD59A61082220219A619A6284072B
:1016A00015D599619A619A622022C10711D59A6174
:1016B00008229A6110BD9962CDE79A62D1E79962DA
:1016C000D6E79A62DAE79962DFE79A62E3E799621E
:1016D000E8E79A62ECE7C0460004004870B5802550
:1016E00090242D02E40529000022200000F0D2FE03
:1016F0000A2000F0F9FA29000122200000F0CAFEB9
:1017000070BD000010B5040000221021034800F055
:10171000C1FE2000FFF796FF10BDC0460004004840
:1017200010B5040001221021034800F0B3FE200090
:10173000FFF788FF10BDC046000400480F2310B516
:101740001840A1331843FFF7DDFF10BD10B50309A2
:10175000040010201843FFF7D5FF0F202040FFF7AB
:10176000D1FF10BDF8B50024114E671C7278E0B2AD
:10177000FB009A4205DB3C00102FF5D100F098F8F1
:10178000F8BDF278083B9A42F8DBFFF7D7FF3078D4
:10179000FFF7DCFF3578E401B378AB42EBD3054BC0
:1017A0001B685B19185D0135FFF7BAFFEDB2F3E76F
:1017B000EC050020F009002010B5E220FFF7A2FFA1
:1017C0002F20FFF79FFF2620FFF79CFF8120FFF7C8
:1017D00099FF1D20FFF796FFA020FFF793FFD02071
:1017E000FFF790FFA220FFF78DFFC820FFF78AFFC9
:1017F000A420FFF787FFA720FFF784FFAF20FFF7A4
:1018000081FF10BD10B5FFF769FFFFF7D5FF0F4A45
:101810000F4B1A6000F072F800F056F8FFF7A2FFC5
:101820000C4B03CB00F096F90B4A0F21192000F066
:1018300011FA0A4A2321082000F00CFAFFF792FF60
:10184000FA20000100F050FA10BDC046F00500205B
:10185000F00900209C4D0008C4420008CF42000857
:1018600030B544B2002C00DA7F2054B2002C00DAEC
:101870007F220C1C3F2900D93F24E4B2191C3F2BC6
:1018800000D93F21094BC9B21D78854200D9187093
:101890009878904200D29A705A78A24200D95C702F
:1018A000DA788A4200D2D97030BDC046EC050020FB
:1018B0007F22044B3F211A70002259709A70DA700F
:1018C0007047C046EC05002000227F21034B1A70B0
:1018D0005A703F329970DA707047C046EC050020AC
:1018E000802210B5044BD2001868002102F043F8A2
:1018F000FFF7EAFF10BDC046F009002010B5FFF762
:10190000EFFFFFF72FFF10BDF8B543B2002B13DB3D
:101910003F2911D8072301240B409C40CD08ED013D
:10192000074F2D187E5763B2002A06D033437B55EC
:101930000B000200FFF794FFF8BD9E437E55F7E7CA
:10194000F005002043B270B505000C00002B10DB41
:101950003F290ED80B000200FFF782FF0723E008A3
:101960001C40063BA340034AC0014019115C4B4098
:10197000135470BDF0050020F0B506000F0085B0CF
:1019800002930AAB1B780192039304B2019BF318F4
:101990009C420DDB029B019A013B013AFB18B218F5
:1019A000DBB2D2B239003000FFF75AFF05B0F0BD0C
:1019B0003DB2029BFB189D4202DB013424B2E5E7F5
:1019C000E9B2E0B2039A0135FFF79EFF2DB2F0E7CE
:1019D000F0B585B003930AAB1B780E0001936B46FC
:1019E0001700009000241C5F039B013BCB18DBB267
:1019F0000293009BDB199C4210DB009B013FDF1927
:101A000035B2FCB2039BF3189D4215DB029B22000A
:101A100031000098FFF724FF05B0F0BDE5B2019A50
:101A200031002800FFF770FF0134019A0299280065
:101A3000FFF76AFF24B2DCE7EFB2019A39000098A1
:101A4000FFF762FF0135019A39002000FFF75CFFC4
:101A50002DB2D7E7F7B506000F00040000920193FE
:101A6000009BF3189C420DDBF7BD29002000FFF717
:101A700069FF0135EDB2019BFB189D42F5DB013496
:101A8000E4B2EDE73D00F6E7F0B585B01C000AAB27
:101A90001B7805000E0017000393022C13D90123B5
:101AA00000932300023CFFF793FFE3B20124023FBF
:101AB0000399FAB25143013601350A0AE8B2F1B28C
:101AC0000094FFF759FF05B0F0BDF0B587B01F00D7
:101AD0000CAB0500039116001C78022F31D954433A
:101AE00024120419E4B2C31CA3422CDB041DE4B28B
:101AF000039B3200023BDBB204933B1DDBB2059338
:101B00000023049900932800059BFFF735FF01226D
:101B10003B000092039932002800FFF72DFF0122BD
:101B2000A01EC0B20092059B03320499FFF724FF68
:101B30000023013C0093E0B23B0002220399FFF72F
:101B40001BFF07B0F0BD8318033B9C42D0DB141F82
:101B50000419CCE782B06B46034A0090596003CB6E
:101B600003C202B07047C046F4090020F0B52B4B09
:101B700089B002919979914220D8DC7994421DD3A1
:101B80005C79E5080095640702D02C0001340094CC
:101B90001C79009D521A6C4305000134E4B2624383
:101BA0001C68A418237801931B180393039B9D4280
:101BB00031D0009B029F1B19059325E02E22DFE701
:101BC000002663780693029BFB1A0793FBB20493EB
:101BD0007F2D1EDCBB193F2B1BDC104B5A79079B5A
:101BE0009B199A420BDD049B069A991932410123F5
:101BF000E8B2C9B21A4000D01A00FFF785FE0136DC
:101C0000082EE5D108370134059B9C42D8D1013517
:101C1000CCE700230193019809B0F0BDF40900203E
:101C200070B50B4B14005A793F2306000D009B1A28
:101C3000994208DD70BD30002900FFF797FF0130A1
:101C40003618F6B201342278002AF4D1F2E7C04601
:101C5000F409002070B50B4B0D0059793F230600A5
:101C60005B1A9D420DDC14000134631E1A78002AB1
:101C700007D030002900FFF779FF01303618F6B29F
:101C8000F2E770BDF409002010B5040001F048FA35
:101C9000FA218900FEF742FA00F070FA01200022D2
:101CA0002100404200F036FA002010BD1023064A01
:101CB00010B5116800200B431360FFF7E5FFFEF736
:101CC000A7FC002010BDC04600200240024A136855
:101CD000013313607047C046FC090020014B1868AF
:101CE0007047C046FC09002037B50190FFF7F6FFAA
:101CF000019C0500631C5A1E9341E418FFF7EEFF98
:101D0000401BA042FAD337BD002373B503210193D2
:101D1000036804009A680A40012A07D11968114231
:101D200001D0002076BDDA681204FAD49968194A05
:101D3000114208D010230120626C13436364A36C2A
:101D40000343A364EEE7012299680A439A60124BA9
:101D500012491868FEF7E2F90190019B002B15D19A
:101D6000FFF7BCFF0125060023681B682B42D8D172
:101D7000FFF7B4FF801B0228F6D91023626C012004
:101D800013436364A36C2B43A364CBE7019B013B28
:101D90000193E2E7170000800000002040420F009E
:101DA000F8B504000120002C7DD0636C002B06D117
:101DB00022004032A36420001370FEF793FA636C94
:101DC000DB0600D584E0042223689868104000D028
:101DD0007EE0626C4149114002220A4303216264A1
:101DE0009A680A40012A05D1196811420ED1DA68B1
:101DF00012040BD41821DA688A43A1680A43DA6016
:101E0000196962688900890811431961DA683449DF
:101E1000256A0A40DA60A2696F039103E269D2037E
:101E20001143626B013A561EB2411603E268114338
:101E300022690F43022A00D10420226B616A5200FA
:101E40003A4332430243012904D1002D2CD1802191
:101E500049020A43C220A16AFF30814202D0E06AEF
:101E600001430A438020D96840051143D960A16B22
:101E7000814202D0481E062807D807255869294004
:101E8000A8435861586901435961DB6815490B4003
:101E9000934211D100200322A064636C93431A0083
:101EA000012313436364F8BD2020656C28436064FC
:101EB000A06C0143A164CDE71222636C012093431F
:101EC0001A00102313436364A36C0343A364EAE77B
:101ED0001023626C012013436364E4E7FDFEFFFFFF
:101EE0001902FEFFE7FF3F83F7B5036804009B6814
:101EF0000F00019202205B0730D426004036337871
:101F0000012B2BD001233370E369012B27D1636CA4
:101F1000164A00251A4080235B0013436364E06B7C
:101F2000134BA56435708362124B2168C362124B58
:101F300003631C230B604A680C3B13434B60012373
:101F4000CA681343CB603A004031019B00F066F948
:101F500004232800226891680B439360FEBD200093
:101F6000FFF7D2FE0028D2D0F8E7C046FEF0FFFF10
:101F7000811F0008F31F0008FF1F000870470000C2
:101F80005022436A10B5596C11422AD1596CB132B2
:101F9000FF320A43C0215A641A680901D068084216
:101FA00012D1196A00290FD1116809070CD591685F
:101FB00049070DD40C205168814351605A6C0B497C
:101FC000114001220A435A641800FFF7D7FF10BDE1
:101FD0002022596C0A435A640122996C0A439A647C
:101FE000F2E7DB6B1B6B9847F1E7C046FEFEFFFF95
:101FF000704710B5406AFFF7FBFF10BD70474023E4
:10200000406A10B5426C134343640423826C13434B
:102010008364FFF7F3FF10BDF0B50023040085B023
:1020200003934034237802000220012B2FD0936BBE
:1020300017689C460123BD6800182370054059D1DC
:102040000E682F48B340320001934B68103A834228
:102050003DD0BB6A019818438023B8625B059C455C
:1020600010D06346013B062B0CD98B680721786999
:102070000840834206D078690B40884378617869CC
:1020800003437B61012A04D900200023237005B09B
:10209000F0BD3300103B581E8341802019495B423C
:1020A0000A689B0500041B1813430B60102EEBD12C
:1020B000154B16491868FEF731F80A235843039068
:1020C000039B002BE0D0039B013B0393F8E7B96A25
:1020D000019B9943B962012AD6D8531E9A415342B3
:1020E00080220849D2031340094A08689B1803401C
:1020F0000B60C9E72021506C014351641800C4E70C
:1021000001100000082701400000002040420F009D
:10211000FFFF7FFF30B5FF2503242A00C3B21C4018
:10212000E400A24089012940D243A14000280BDAF3
:102130000F200340083B0A489B089B001B18D869E6
:1021400002401143D96130BD064B80088000C018A1
:10215000C0239B00C45822401143C150F3E7C0463E
:1021600000ED00E000E100E01F2318401E3B83402B
:10217000014A13607047C04600E100E0094A431E6F
:10218000012093420DD8C021074A08485360036AD2
:1021900009061B021B0A0B43036200200723906001
:1021A00013607047FFFFFF0010E000E000ED00E06B
:1021B00070B504000125002828D00223861C006881
:1021C000F3770268124BA1681A4063680B43E16819
:1021D0000B4321690B4361690B43A1690B43E1691F
:1021E0000B43134303600B4B1421C018FDF796FFFC
:1021F000094B8000E36300232064A362E36223634E
:102200006363A363F57764191D00E377280070BD4D
:102210000FC0FFFFF8FFFDBF00000240F0B5441CF7
:10222000E67F05000220012E27D00138E077A81CA8
:10223000C67F8446F6B202200027012E28D16446CC
:10224000E0772C68AF6320682F6CB043BE402060FD
:10225000E86B466063606B682868102B0ED1A26043
:10226000E160EB6A2268002B0BD00E23134323603E
:1022700001230268134303600020F0BDA160E26007
:10228000EFE70A2313430422236023689343EEE716
:10229000E777F2E7F8B504273E00016CC26B8E4089
:1022A000156803681C6835420DD03C420BD0196894
:1022B000890602D41968B9431960C36A5660002BB5
:1022C00019D0984717E002273E008E40354213D0C0
:1022D0003C4211D01968890606D40A241968A14322
:1022E00019600121C319D97756600022431CDA779F
:1022F000836A9342E5D1F8BD082637008F403D42FE
:10230000F9D03442F7D00E251C68AC431C60012381
:102310001C008C405460821C8363D3770022C31856
:10232000DA77036BE5E70000F0B50B6887B003933D
:1023300000230191039ADA4001D107B0F0BD0122D8
:102340009A4002920299039A0A40009200D18CE0CE
:10235000019A1021526816008E43022E0ED10725D5
:102360001D40AD000139A940DC08A4000419276A0A
:102370008F4301990969A9400F43276203245F0035
:10238000BC40E4430568013E2540AC4603251540AA
:10239000BD4061460D430560012E0FD80199866846
:1023A000CD682640BD4035438560466802991509D1
:1023B0008E4301210D409D4035434560C56801991C
:1023C0002C408D688021BD4049052C43C4600A42E1
:1023D0004BD00121264C0326A5691E400D43A56163
:1023E000A4699D080C400594059C0F242149AD006B
:1023F000B6006D18B4409021AF68C905A74300240A
:1024000088420CD01C490134884208D01B49013451
:10241000884204D01A490334884200D1023CB440B7
:1024200000993C430E00AC60164CCD4327683E43F8
:10243000D10301D43E002E4026606768009E3E43D3
:10244000910301D43E002E406660A768009E3E4383
:10245000D10201D43E002E40A660E668009F3743BB
:10246000920201D42E403700E760013362E7C04694
:10247000001002400000014000040048000800482D
:10248000000C00480004014000690840411E8841DA
:10249000C0B27047002A01D0816170478162FCE7B9
:1024A00003689A69920701D500229A62012299690C
:1024B000114202D199690A439A617047006830B5A8
:1024C0004568064C12042C40039D89052B431A4392
:1024D000890D0A432243426030BDC046009800FC8B
:1024E000F8B504000E0017001D0022689369334000
:1024F0009B1B59424B41BB4201D000200EE06B1C9C
:10250000F4D0002D0BD12300202241331A70220079
:10251000002303204232403413702370F8BDFFF7CC
:10252000DDFB069BC01AA842DFD9ECE7F8B50368CB
:102530000400986910230E00170018402025002879
:1025400015D1F8BD721C13D0002E04D0FFF7C6FBC6
:10255000C01B86420BD22300202241331A70220076
:10256000002342324034137003202370E9E72368CC
:102570009A692A42E6D010222000DA61DD61FFF775
:102580008FFF22680849536801200B4053600423E1
:1025900063642300220041331D7000234232403423
:1025A00013702370CDE7C04600E800FEF8B50400C4
:1025B0000D001600022723689B693B4201D00020D2
:1025C00018E0320029002000FFF7B0FF002818D1E2
:1025D0006B1CF0D0002D0ED12022636C032013431E
:1025E0006364230041331A702200002342324034D6
:1025F00013702370F8BDFFF771FB801BA842DAD976
:10260000EAE70120F6E773B515001E00DAB2802371
:102610009B010093802304005B04FFF74FFF079AA0
:1026200006992000FFF7C2FF002805D0636C012047
:10263000042B00D0032076BD2368012E0CD1EDB20F
:102640009D62079B002200938021069B2000FFF7DC
:1026500047FF0028EFD0EDE72A0A9A620699079A09
:102660002000FFF7A3FF0028E0D12368E7E773B558
:1026700015001E00DAB2802304009B0100930023A2
:10268000FFF71CFF079A06992000FFF78FFF00282D
:1026900005D0636C0120042B00D0032076BD236895
:1026A000012E0CD1EDB29D62079B002200934021C8
:1026B000069B2000FFF714FF0028EFD0EDE72A0A61
:1026C0009A620699079A2000FFF770FF0028E0D170
:1026D0002368E7E7F8B504000D00160020272368FB
:1026E0009B693B4201D0002016E032002900200007
:1026F000FFF71CFF002816D1002D0ED12022636C9D
:10270000032013436364230041331A702200002323
:102710004232403413702370F8BDFFF7DFFA801B9C
:10272000A842DCD9EAE70120F6E7000070B5040012
:102730000120002C3FD0250041352B78DBB2002B47
:1027400005D12200403213702000FDF7A3FE2423A0
:1027500001212B702368E0681A68A6688A431A6012
:1027600061681A4A0A401A619968194A11409960C9
:10277000012821D180210902314399605868154907
:1027800001435960D96800200A40DA606169226912
:102790000A43A16909020A43DA60216AE2690A432D
:1027A0001A60012219680A431A60202360642B70A2
:1027B00020634234207070BD842109023143996046
:1027C0000228DBD1802109015960D7E7FFFFFFF024
:1027D000FF7FFFFF00800002F0B589B007930EABCA
:1027E000069204CB04001B88039204930300413338
:1027F00005931B780D000220202B02D1002A02D164
:10280000012009B0F0BD049B002BF9D02700403710
:102810003B78012BF5D001233B70FFF75FFA802155
:10282000029000901923012209022000FFF758FEB0
:10283000061E1ED12123059A29001370230042335E
:1028400005934023059A1370039B60646362049BA5
:1028500060636385029B069A0193109B200000939E
:10286000079BFFF7D0FE002805D0636C3E70042B59
:10287000C6D00320C5E7638DFF2B14D9FF22802328
:1028800022855B040090290020008026FFF716FEB9
:10289000FF27B604029A10992000FFF787FE002850
:1028A00009D0636CE3E78023628D9B0492B222859A
:1028B000D2B20090E7E7636A5A1C62621B78226812
:1028C0009362638D228D013B013A9BB292B2638584
:1028D0002285002A17D1638D002B14D0029B802102
:1028E00000932000109BFFF7FBFD0028C1D1638DF2
:1028F000FF2B21D98023FF2227855B04009029002C
:102900002000FFF7DBFD638D002BC3D1029A1099E5
:102910002000FFF7DFFE0028C3D1202123680A4DE5
:10292000D9615A682A405A60230041331970059BC7
:1029300040341870207064E7628D330092B22285B3
:10294000D2B20090DBE7C04600E800FEF0B589B0E7
:1029500007930EAB069204CB04001B8803920493EA
:102960000300413305931B780D000220202B02D178
:10297000002A02D1012009B0F0BD049B002BF9D040
:10298000270040373B78012BF5D001233B70FFF740
:10299000A5F980210290009019230122090220004C
:1029A000FFF79EFD061E1ED12223059A29001370F3
:1029B0002300423305934023059A1370039B606400
:1029C0006362049B60636385029B069A0193109B7C
:1029D00020000093079BFFF74AFE002805D0636C98
:1029E0003E70042BC6D00320C5E79023628D9B0167
:1029F000FF2A49D9FF222285009380235B04290006
:102A000020008026FFF75AFDFF27B604029B002214
:102A100000930421109B2000FFF762FD0028E2D103
:102A200023685A6A636A591C61621A70228D638D29
:102A3000013A013B92B29BB222856385002A17D1ED
:102A4000638D002B14D0029B802100932000109BEB
:102A5000FFF746FD0028C6D1638DFF2B1CD98023CC
:102A6000FF2227855B04009029002000FFF726FD48
:102A7000638D002BCAD1029A10992000FFF72AFE1D
:102A8000002810D0636CACE7628D92B2228500936F
:102A90008023D2B29B04B2E7628D330092B22285CA
:102AA000D2B20090E0E720212368064DD9615A6830
:102AB0002A405A60230041331970059B4034187036
:102AC000207058E700E800FEF0B504004134227899
:102AD0000300D2B20220202A18D11D0040352E78E2
:102AE000012E13D01B68223020701E6823388643C5
:102AF0001E601E68064F3E401E601E68314319600E
:102B0000196808431860002022702870F0BDC04684
:102B1000FFEFFFFFF0B5050041352A780300D2B280
:102B20000220202A17D11C0040342678012E12D012
:102B30001B68223028701E68233886431E601E687A
:102B4000054F09023E403143196019680843186077
:102B500000202A702070F0BDFFF0FFFF70B5040068
:102B60000120002C14D023680F4A1A600F4A1A6003
:102B700062685A60A2689A60FFF7B0F8050023689F
:102B8000D868002805D11969E268914208D01A6115
:102B900070BDFFF7A3F8401B2728F0D90320F7E703
:102BA000034A1A60F4E7C046CCCC0000555500003B
:102BB000AAAA00000368024A00201A607047C046B3
:102BC000AAAA0000F0B5036885B00500DB072FD482
:102BD0002B689B0700D581E02B681B0700D5BCE064
:102BE0002B685B0700D5DFE02B68DB061AD56A6926
:102BF000B54C0423012A00D04BE1616B02260B4344
:102C00006363636B1A436263FFF768F80700636BE3
:102C1000334200D136E1F821626BAB698A43DB00B5
:102C200013436363296A002900D059E1002013E0AF
:102C30000C21A54C62680A40042A06D063680B4048
:102C4000082B0BD16368DB0308D523689B03BFD532
:102C50006B68002BBCD1012005B0F0BD6B68012B67
:102C600013D1802322685B0213432360FFF736F8F9
:102C700080260700B60223683342A9D1FFF72EF859
:102C8000C01B6428F7D90320E6E7002B16D1236880
:102C90008E4A80261340236023688D4AB602134073
:102CA0002360FFF71BF807002368334200D18FE74A
:102CB000FFF714F8C01B6428F6D9E4E7052B05D10B
:102CC00080232268DB0213432360CAE723687F4A1C
:102CD0001340236023687E4A1340C6E70C227A4CD7
:102CE0006368134206D063681340082B10D16368F1
:102CF000DB030DD423689B0702D5EB68012BAAD117
:102D0000F82122682B698A43DB001343236063E7C1
:102D1000EA680123002A0FD02268022613432360A9
:102D2000FEF7DCFF070023683342E9D1FEF7D6FF48
:102D3000C01B0228F7D9A6E7226802269A43226020
:102D4000FEF7CCFF07002368334200D144E7FEF7CB
:102D5000C5FFC01B0228F6D995E7EA6901235A4C42
:102D6000002A10D0626A022613436362FEF7B6FFA0
:102D70000700636A334200D032E7FEF7AFFFC01BA3
:102D80000228F6D97FE7626A02269A436262FEF75A
:102D9000A5FF0700636A334200D121E7FEF79EFFDB
:102DA000C01B0228F6D96EE780220021464C52054E
:102DB000E3690091134208D1E3691343E361E369D6
:102DC00013400393039B012300938027414E7F0010
:102DD00033683B4206D0AB68012B13D1226A134300
:102DE000236230E033683B433360FEF777FF0190A6
:102DF00033683B42EFD1FEF771FF019BC01A642894
:102E0000F6D940E70122002B14D1236A022793430D
:102E10002362236A033293432362FEF75FFF0600B7
:102E2000236A3B4225D0FEF759FF2B4B801B98426B
:102E3000F6D928E7052B0BD1216A013B0B4323620E
:102E4000236A1A432262FEF749FF022706000DE0BB
:102E5000236A934304222362236A9343C0E7FEF765
:102E60003DFF1D4B801B984200D90CE7236A3B4273
:102E7000F5D0009B012B00D0B6E6E369174A13405A
:102E8000E361B1E6FEF72AFFC01B022800D8BEE6C8
:102E9000F9E6053203D1626B9A436263BBE6626B6B
:102EA0000226134301226363636B93436363FEF75C
:102EB00015FF0700636B334200D1B3E6FEF70EFF48
:102EC000C01B0228F6D9DEE600100240FFFFFEFF1D
:102ED000FFFFFBFF0070004088130000FFFFFFEFC3
:102EE0000C22264C012063681340082B00D1B3E666
:102EF0002368234A1340236002292FD1FEF7EEFEF8
:102F000080260700B6042368334221D10F22E36AEA
:102F10009343EA6A1343E362696AAB6A62680B43EC
:102F2000184980250A4013436360802322685B04AC
:102F300013432360FEF7D2FE0600AD0423682B4244
:102F400000D073E6FEF7CAFE801B0228F6D99AE687
:102F5000FEF7C4FEC01B0228D5D994E6FEF7BEFEDC
:102F600080250600AD0423682B4200D15EE6FEF703
:102F7000B5FE801B0228F6D985E6C0460010024047
:102F8000FFFFFFFEFFFFC2FF70B5154C88B0102297
:102F90002100684600F0E6FC210004AD102210314B
:102FA000280000F0DFFC0C230E4E72681340042B47
:102FB00013D0082B02D00C4808B070BD0F206B4610
:102FC000910C01405C5CF36A0340E95C0748D30361
:102FD00001D5FDF7A3F86043EEE70448ECE7C046EF
:102FE0009C4100080010024000127A0000093D00D8
:102FF000F7B50122444C060023680F0013408B42B2
:103000001DD33268930724D4D3072AD4012322681E
:103010001A40BA4268D833683C4C5B0700D56BE075
:10302000FFF7B2FF63683A4A1B061B0FD35CD84018
:10303000384B18600020FEF727FE002008E02368C8
:1030400093430B432360236813408B42D9D0012064
:10305000FEBDF0202D494B688343B06803434B60AD
:10306000D2E72A4D72682B68012A1AD19B03EED54C
:1030700003216B688B4313436B60FEF72FFE73686D
:103080000190012B15D10C226B681340042BBDD08D
:10309000FEF724FE019BC01A1F4B9842F3D9032070
:1030A000D6E7022A02D19B01E2D4D0E79B07DFD406
:1030B000CDE7022B12D00C226B681342A6D0FEF78C
:1030C0000DFE019BC01A144B9842F4D9E7E7FEF7B6
:1030D00005FE019BC01A104B9842E0D80C226B6889
:1030E0001340082BF3D191E722689A4322602268AB
:1030F0001A4200D18FE7AAE76368084A1340F268D2
:10310000134363608CE7C046002002400010024079
:10311000BC4100080000002088130000FFF8FFFFFA
:10312000014B18687047C04600000020F0B50368E6
:1031300085B00500DB0328D580220021374C5205DD
:10314000E3690091134208D1E3691343E361E36942
:1031500013400393039B012300938027304E7F008D
:1031600033683B4226D0C022236A920013402D4E82
:1031700032D1236A1E406B681E43009B2662012BDE
:1031800003D1E369284A1340E3612A68D30706D5CF
:10319000032022490B6B8343A86803430B63002081
:1031A000930617D510211D4A136B8B43E9680B4317
:1031B00013630FE033683B433360FEF78FFD0190EC
:1031C00033683B42CFD1FEF789FD019BC01A6428CA
:1031D000F6D9032005B0F0BD69680A409A42C8D00C
:1031E0008023226A206A11005B0203432362236A60
:1031F0000E483140034023622162D307B9D5FEF760
:103200006DFD07000222236A1342B2D1FEF766FD6C
:10321000074BC01B9842F5D9DBE7C04600100240BF
:1032200000700040FFFCFFFFFFFFFFEFFFFFFEFF0E
:10323000881300000122036A70B593430362036A96
:1032400044688569723295430A68154302229343A4
:103250008A681343114A904205D0114EB04202D001
:10326000104EB04213D10826B343CE683343042630
:10327000B343904205D00A4A904202D0094A904294
:1032800005D1094A8E6922404C69344314434A6887
:10329000446085614263036270BDC046002C0140FA
:1032A0000044014000480140FFFCFFFF70B573255A
:1032B000036A164A13400362036A4268C469AC4356
:1032C0000D682C43124D2B408D682D022B43114D60
:1032D000A8420ED1104D1D40CB681B022B430F4D51
:1032E0002B400F4D4E6915408A69324312012A4323
:1032F00005E00C4DA842F4D00B4DA842F1D042603D
:103300004A68C461C263036270BDC046FFFEFFFF2E
:10331000FFFDFFFF002C0140FFF7FFFFFFFBFFFF5A
:10332000FFCFFFFF0044014000480140036A124AFA
:1033300030B513400362026A104C4368C5692540EA
:103340000C68240225430E4C22408C68240322433F
:103350000C4CA04205D00C4CA04202D00B4CA04219
:1033600004D10B4C23404C69A401234343604B68B8
:10337000C5610364026230BDFFEFFFFFFF8CFFFFFA
:10338000FFDFFFFF002C01400044014000480140E6
:10339000FFBFFFFF01220368D96800201143D960F5
:1033A00019680A431A6070470368012200290AD08D
:1033B000042905D0196A91431962196A0A431A62ED
:1033C000196A102200E0196A91431962196A0020F3
:1033D0000A431A62012219680A431A60704770474B
:1033E0007047704770470222036810B519690400DE
:1033F00011420ED0D96811420BD0053A1A619B696F
:10340000043202779B0700D179E0FFF7E9FF002340
:103410002377042223681969114210D0D968114218
:103420000DD0093A1A61073222779A69C0239B00AE
:1034300020001A4269D0FFF7D3FF00232377082228
:103440002368196911420ED0D96811420BD0113A84
:103450001A61DB690D32227720009B075BD0FFF7F2
:10346000BFFF00232377102223681969114210D06F
:10347000D96811420DD0213A1A6119322277DA69DE
:10348000C0239B0020001A424BD0FFF7A9FF002366
:103490002377012223681969114207D0D9681142A4
:1034A00004D0033A1A612000FDF746F88022236811
:1034B0001969114208D0D968114205D0023AFF3A81
:1034C0001A61200000F0EFF94022236819691142C7
:1034D00007D0D968114204D0813A1A612000FFF761
:1034E00081FF202223681969114207D0D96811424F
:1034F00004D0413A1A61200000F0D4F910BDFFF762
:103500006EFF2000FFF76DFF81E7FFF768FF2000E7
:10351000FFF767FF91E7FFF762FF2000FFF761FF0A
:103520009FE7FFF75CFF2000FFF75BFFAFE70000BE
:10353000194A10B50368904202D0184CA04208D135
:103540007024A3434C68234390420BD0134CA042F9
:1035500008D0134CA04205D0124CA04202D0124C0D
:10356000A04203D1114C2340CC6823438024A343C1
:103570004C69234303608B68C3620B68836290428B
:1035800005D0084B984202D0074B984201D10B69F5
:1035900003630123436110BD002C0140000400407F
:1035A000002000400044014000480140FFFCFFFFB4
:1035B00070B504000120002C14D025003D352B7877
:1035C000DBB2002B05D122003C3213702000FDF746
:1035D00063F9022320682B70211DFFF7A9FF012347
:1035E00000202B7070BD70B504000120002C14D099
:1035F00025003D352B78DBB2002B05D122003C3273
:1036000013702000FDF704F9022320682B70211DA0
:10361000FFF78EFF012300202B7070BDF8B5060068
:103620000C000120002E3DD035003D352B78DBB25B
:10363000002B05D132003C3213703000FDF7B8F892
:1036400031000223072201C92B70836893438360F2
:10365000FFF76EFF32682368916896691943124B31
:10366000A7681E40A369106A1B023B4333430F4EF9
:1036700027691E40E3693F011B023B43E7683B4368
:10368000276A3F033B433343AA26B04306006069E1
:10369000646800012043916030439361012310620C
:1036A00000202B70F8BDC046FCFCFFFF0303FFFFAA
:1036B0001022036A70B593430362026A154D436892
:1036C00084692C400D682D022C432025AA438D6867
:1036D0002D012A43104DA8420FD18025AA43150081
:1036E000CA6812012A434025AA430C4D4E691D4069
:1036F0008B6933439B002B4305E0094DA842F4D06E
:10370000084DA842F1D043604B6884618363026234
:1037100070BDC046FF8CFFFF002C0140FFF3FFFF90
:103720000044014000480140F8B5060002233C3641
:103730000D00317804001800012925D0270001214F
:103740003D3731703B700C2A1AD81000FCF7DCFCB6
:10375000071818181D1818182F18181841002900D4
:103760002068FFF767FD0822236899690A4304214E
:103770009A619A698A439A619A6929690A439A61A6
:10378000012300203B703070F8BD29002068FFF74E
:103790008FFF80222368120199690A439A619A690E
:1037A00015490A409A612A6999691202E6E72900D7
:1037B0002068FFF77BFD08222368D9690A430421AA
:1037C000DA61DA698A43DA61DA6929690A43DA6116
:1037D000D6E729002068FFF7A9FD8022236812019F
:1037E000D9690A43DA61DA6903490A40DA612A6968
:1037F000D9691202EAE7C046FFFBFFFF10B50124BA
:103800008C408A40036AA3430362036A1A4302623C
:1038100010BD000010B5040001220068FFF7EEFFA4
:1038200023680A4A934205D0094A934202D0094AC2
:10383000934204D18022596C12020A435A64012235
:10384000196800200A431A6010BDC046002C0140D0
:10385000004401400048014010B5FFF7DBFF10BDF8
:1038600030B5040002223C34257803001000012DFD
:1038700017D01D001B683D352A705A686E30824390
:103880005A605A6808684968024380205A609A68FA
:1038900082439A609A6800200A439A6001232B7041
:1038A000207030BD704770470D4885460D480E4961
:1038B0000E4A002302E0D458C4500433C4188C428A
:1038C000F9D30B4A0B4C002301E013600432A242EF
:1038D000FBD3FCF7E7FE00F017F8FCF777FEFEE7F6
:1038E000001000200000002070010020A0570008F8
:1038F00070010020040A0020FEE70000014B186858
:103900007047C0460C01002070B500260C4D0D4CD0
:10391000641BA410A64209D1002600F033FC0A4D16
:103920000A4C641BA410A64205D170BDB300EB582D
:1039300098470136EEE7B300EB5898470136F2E7B7
:103940009857000898570008985700089C57000897
:1039500010B5034B0100186800F060F810BDC046B8
:103960000C010020002310B59A4200D110BDCC5CA0
:10397000C4540133F8E703001218934200D1704792
:1039800019700133F9E7000070B50500002910D067
:103990000C1F2368002B00DAE418280000F0CEF892
:1039A0001D4A1368002B05D163601460280000F0E5
:1039B000C6F870BDA34209D9216860188342F3D1CB
:1039C00018685B6841182160EEE713005A68002A06
:1039D00001D0A242F9D919685818A0420BD1206829
:1039E0000918581819608242E0D1106852684118CD
:1039F00019605A60DAE7A04202D90C232B60D5E7A0
:103A000021686018824203D1106852684118216011
:103A100062605C60CAE7C046F0030020032370B513
:103A2000CD1C9D43083506000C2D1ED20C25A94245
:103A30001DD8300000F082F8254A146821000029C2
:103A400019D1244C2368002B03D1300000F044F836
:103A500020602900300000F03FF8431C2BD10C23DC
:103A60003000336000F06BF803E0002DDFDA0C2348
:103A70003360002070BD0B685B1B19D40B2B03D97E
:103A80000B60CC18256003E04B688C420DD11360AD
:103A9000300000F054F8200007220B30231D904323
:103AA000C31AE7D05A42E250E4E763600C00EFE744
:103AB0000C004968C3E70323C41C9C43A042E1D027
:103AC000211A300000F008F8431CDBD1C7E7C046DC
:103AD000F0030020F4030020002370B5064C05001D
:103AE00008002360FCF7C4FD431C03D12368002BAE
:103AF00000D02B6070BDC046000A00200EB400B597
:103B00000B499CB01DAB02900690079104910948A7
:103B1000094904CB0591006802A9019300F072F8ED
:103B20000023029A13701CB008BC03B01847C046AB
:103B3000FFFFFF7F0C0100200802FFFF7047704766
:103B4000F0B58E6885B007000C00039201939E4289
:103B50003CD890238A89DB001A4234D003250969B6
:103B600023685B1A0293636902985D43EB0F5D194A
:103B7000019B6D1001331B18AB4200D91D0053058A
:103B800032D529003800FFF749FF061E09D10C2362
:103B90003B6040230120A28940421343A38105B02A
:103BA000F0BD029A2169FFF7DDFEA389144A1A408D
:103BB00080231343A381029B2661F618266065616A
:103BC000019EED1AA560019B9E4200D9019E320024
:103BD0000399206800F095FAA36800209B1BA3605E
:103BE00023689E192660DAE72A00380000F09CFA64
:103BF000061EE0D121693800FFF7C6FEC7E7C046C0
:103C00007FFBFFFFF0B5A1B003901D008B890F0073
:103C100016001B0611D50B69002B0ED14021FFF7B2
:103C2000FDFE38603861002805D10C23039A013865
:103C3000136021B0F0BD40237B61002308AC6361B9
:103C4000203363761033A376079535002B78002B4D
:103C500001D0252B46D1AB1B05930CD03200390087
:103C60000398FFF76DFF431C00D1AEE06269059B2E
:103C70009446634463612B78002B00D1A5E00122B8
:103C800000235242626004A9543252186E1C236011
:103C9000E360A3601370A36531780522534800F0F8
:103CA00025FA751C00281FD12268D30604D553239A
:103CB00004A95B1820211970130704D5532304A904
:103CC0005B182B21197033782A2B16D03500002170
:103CD0000A20E3682A786E1C303A092A4ED9002956
:103CE00018D010E00135B1E7404B2268C01A01231B
:103CF0008340134323602E00CEE7079B191D1B68EA
:103D00000791002B01DB0B9304E05B42E36002238D
:103D1000134323602B782E2B0AD16B782A2B35D1B5
:103D2000079B02351A1D1B680792002B2BDB09939A
:103D30002F4E29780322300000F0D8F9002806D051
:103D40004023801B83402268013513432360297878
:103D5000062228486E1C217600F0C8F900283CD0C5
:103D6000254B002B25D10722079B073393430833AC
:103D700007936369049A9B18636166E743430121D3
:103D80009B183500A6E701235B42D0E700230A20F9
:103D90001A000135636029786E1C3039092903D96E
:103DA000002BC5D00992C3E74243012352183500C6
:103DB000F1E707AB00933A00104B2100039800E0B5
:103DC00000BF0490049B0133D3D1BB890D985B06DF
:103DD00000D42EE7012040422BE707AB00933A00C6
:103DE000064B2100039800F079F8EAE762570008D3
:103DF000685700086C57000800000000413B0008AD
:103E0000F7B5150001938A680B6900900C00934286
:103E100000DA130022002B6043321278002A01D00E
:103E200001332B6023689B0602D52B6802332B607D
:103E3000062723681F4027D0230043331B785A1ED0
:103E400093412268920630D42200019943320098AF
:103E5000089EB047431C25D0062320682A68E168E5
:103E600003400025042B03D18D1AEB43DB171D40C3
:103E7000A3682269934201DD9B1AED180027BD4219
:103E800020D1002010E00137E3682A689B1ABB426A
:103E9000D2DD22000123193201990098089EB04713
:103EA000431CF0D101204042FEBD3020E1184331D7
:103EB000087021005A1C45310978A2184332023398
:103EC0001170C1E7220001231A3201990098089E5F
:103ED000B047431CE6D00137D1E70000F0B589B008
:103EE00004920A0043320593039002920A7E0C006A
:103EF0000E9B6E2A00D186E01FD8632A33D008D8E3
:103F0000002A00D18CE0582A4DD0250042352A7075
:103F100030E0642A01D0692AF7D1196825680A1DA2
:103F2000280629D508681A60002803DA2D23029A8A
:103F3000404213706B4E0A274FE0732A74D008D8A2
:103F40006F2A1FD0702AE0D1202209680A4322601C
:103F500003E0752A16D0782AD7D12200782145327D
:103F60001170614E22E025001A684235111D19605A
:103F700013682B70012365E008681A606906D3D5C1
:103F800000B2D1E719682568081D186008682E0678
:103F900005D5544E08276F2A1BD00A2719E06D0655
:103FA000F7D580B2F5E745314E4E0A7018682268A1
:103FB000011D00681960150621D5D30702D52023FD
:103FC0001A4322601027002803D1202322689A4335
:103FD00022602300002243331A706368A360002B21
:103FE00058DB0422216891432160002854D1029DAE
:103FF000002B5AD02500337842352B7055E05506FA
:10400000DBD580B2D9E71A680D68101D49691860C0
:1040100013682E0601D5196002E06D06FBD51980E4
:104020000023029D23614FE01A68111D1960156875
:1040300000216268280000F059F8002801D0401BD8
:104040006060636823610023029A13703CE0236977
:104050002A0004990398059DA847431C3ED0236875
:104060009B0715D4079BE068984239DA180037E0BF
:1040700022000123193204990398059EB047431C7E
:104080002CD00135E368079A9B1AAB42F0DCE9E7D4
:104090000025F7E70028ADD0029D3900FCF7C4F8F1
:1040A000735C013D2B700028F7D1082F09D12368DC
:1040B000DB0706D563682269934202DC3023013DA9
:1040C0002B70029B5B1B2361059B07AA00932100B9
:1040D000049B0398FFF794FE431CB8D10120404293
:1040E00009B0F0BD7357000884570008C9B28218A0
:1040F000904201D10020704703788B42FBD0013001
:10410000F6E710B5884202D98B18984203D30023F2
:1041100007E08B5C8354013AFBD210BDCC5CC454E5
:1041200001339A42FAD1F8E7F8B507000D001600FE
:10413000002905D11100FFF771FC04002000F8BD33
:10414000002A03D1FFF720FC3400F7E700F012F853
:104150002C00B042F2D231003800FFF75FFC041EA1
:10416000ECD029003200FFF7FDFB29003800FFF7F3
:104170000BFCE3E70B1F1B68181F002B01DA0B5821
:10418000C0187047F8B5C046F8BC08BC9E467047DA
:0C419000F8B5C046F8BC08BC9E4670475D
:10419C0002030405060708090A0B0C0D0E0F10107C
:1041AC000102030405060708090A0B0C0D0E0F107B
:1041BC0000000000000000000102030406070809CB
:1041CC00510B0008110C0008FD0D0008510B0008E4
:1041DC00C10C0008F10E0008510B0008D10D0008AD
:1041EC00150F0008510B0008110C0008FD0D0008FC
:1041FC00252E32640044454C455445005945530026
:10420C003C3C3C202D2D2D203E3E3E0044454C4553
:10421C0054494E470053415645004552524F5200A7
:10422C005550444154450043484F52555300524554
:10423C005645524200504954434800464C414E4763
:10424C0045004543484F00464C414E4700524F4FA6
:10425C004D0048414C4C00564F43414C00564F4981
:10426C00434500535045454348004D4F4C5449007D
:10427C00504F4E470050494E47004543484F3A4C2B
:10428C00004543484F3A52004543484F3A34004D9D
:10429C004F4E4F004543484F3A33004543484F3A41
:1042AC0032004543484F3A31000000009114000899
:1042BC00551400083914000832343A4249543A442F
:1042CC00535000444F55424C453A4546464543549D
:1042DC000015000000000000FEFF07FFFF0FFFFFAE
:1042EC000FFFFF0FFFFF0F03000C03000C03000C6C
:1042FC0003000C03000C03000C03000C03000C0364
:10430C00000CFFFF0FFFFF0FFFFF0FFFFF0FFEFF64
:10431C0007000000090000001800001C00001E002F
:10432C0000FFFF0FFFFF0FFFFF0FFFFF0FFFFF0F40
:10433C000000000000000000000000000000000071
:10434C000000000000000000000000000000000061
:10435C00000000000000001500000000000003FE3B
:10436C000F03FF0F83FF0F83FF0F83FF0F831F0CC0
:10437C00830F0C830F0C830F0C830F0C830F0C8398
:10438C000F0C830F0CC30F0CFF0F0CFF0F0CFF0F48
:10439C000CFE070CFC030C000000140200040300CC
:1043AC000C03000C03000C03000C03060C03060C9E
:1043BC0003060C03060C03060C03060C03060C0385
:1043CC00060C03060C03060CFFFF0FFFFF0FFFFF8D
:1043DC000FFEFF07FCF903000000000000160000B0
:1043EC0000003C00003E00003F00803F00C03F004A
:1043FC00E03F00F03D00F83C007C3C003E3C001FE0
:10440C003C000F3C00073C00FFFF0FFFFF0FFFFFBE
:10441C000FFFFF0FFFFF0F003C00003C00003C00B3
:10442C0015000000000000FF030CFF030CFF030C41
:10443C00FF030CFF030C03030C03030C03030C031B
:10444C00030C03030C03030C03030C03030C0307FF
:10445C000C03FF0F03FF0F03FF0F03FE0702FC0308
:10446C0000000015000000000000FCFF03FEFF0729
:10447C00FFFF0FFFFF0FFFFF0F03030C03030C03E2
:10448C00030C03030C03030C03030C03030C0303C3
:10449C000C03030C03FF0F03FF0F03FF0F03FE0FAF
:1044AC0003FE0700000013070000030000030000D8
:1044BC0003000C03800F03E00F03F80F03FC0F0342
:1044CC00FF03C3FF00F33F00FB0F00FF0300FF01DE
:1044DC00007F00003F00001F00000F0000070000DD
:1044EC0000000000000000000015000000000000AB
:1044FC007EF803FFFC07FFFF0FFFFF0FFFFF0F030B
:10450C00030C03030C03030C03030C03030C030342
:10451C000C03030C03030C03030CFFFF0FFFFF0F33
:10452C00FFFF0FFFFC077EF80300000015000000E2
:10453C00000000FE030CFF070CFF0F0CFF0F0CFF1D
:10454C000F0C030C0C030C0C030C0C030C0C030CC9
:10455C000C030C0C030C0C030C0C030C0CFFFF0FCA
:10456C00FFFF0FFFFF0FFEFF07FCFF03000000140F
:10457C0000C00100F00100FC01003F00C00F00F87A
:10458C000D007F0C001F0C001F0C007F0C00FF0D9A
:10459C0000FF0F00FC1F00F07F00C0FF0100FF01B7
:1045AC0000FC0100F00100C001000001000000004F
:1045BC0000000000000000000000000000001200DD
:1045CC000000FFFF01FFFF01FFFF01FFFF01FFFFE5
:1045DC0001838101838101838101838101838101B5
:1045EC00838101838101FFFF01FFFF01FFFF01FFB9
:1045FC00FF017EFE00000000000000000000000033
:10460C00000000000000000000000000001000008E
:10461C0000FEFF00FFFF01FFFF01FFFF01FFFF0195
:10462C0003800103800103800103800103800103E7
:10463C0080010380010380010380010280000000DF
:10464C00000000000000000000000000000000005E
:10465C00000000000000000000000000120000003C
:10466C00FFFF01FFFF01FFFF01FFFF01FFFF010340
:10467C00800103800103800103800103800103801A
:10468C0001038001FFFF01FFFF01FFFF01FFFF019D
:10469C00FEFF000000000000000000000000000011
:1046AC0000000000000000000000000F000000FFF0
:1046BC00FF01FFFF01FFFF01FFFF01FFFF018381EE
:1046CC0001838101838101838101838101838101C4
:1046DC0083810183810183810100000000000000BF
:1046EC0000000000000000000000000000000000BE
:1046FC000000000000000000000010000000FFFFA0
:10470C0001FFFF01FFFF01FFFF01FFFF018301001C
:10471C008301008301008301008301008301008376
:10472C000100830100830100020000000000000072
:10473C00000000000000000000000000000000006D
:10474C0000000000000000000012000000FEFF004E
:10475C00FFFF01FFFF01FFFF01FFFF01038001834A
:10476C0081018381018381018381018381018381A3
:10477C000183FF0083FF0083FF0183FF0180FF01A2
:10478C00000000000000000000000000000000001D
:10479C00000000000000000013000000000000FFFB
:1047AC00FF01FFFF01FFFF01FFFF01FFFF01800180
:1047BC000080010080010080010080010080010068
:1047CC00800100FFFF01FFFF01FFFF01FFFF01FF61
:1047DC00FF010000000000000000000000000000CD
:1047EC000000000000000007000000000000FFFFB8
:1047FC0001FFFF01FFFF01FFFF01FFFF01000000B0
:10480C00000000000000000000000000000000009C
:10481C00000000000000000000000000000000008C
:10482C00000000000000000000000000000000007C
:10483C000000000000000F008000008001008001DB
:10484C0000800100800100800100800100800100D7
:10485C008001008001FFFF01FFFF01FFFF01FFFF4F
:10486C0001FFFF000000000000000000000000003D
:10487C00000000000000000000000000000000002C
:10488C00000000000013000000FFFF01FFFF01FF0C
:10489C00FF01FFFF01FFFF01C00300C00300C003C5
:1048AC0000E00300F00F00F83F00FCFF008EFF015A
:1048BC0007FE0103F80101E0010180010000010085
:1048CC0000000000000000000000000000000000DC
:1048DC00000000000F000000FFFF01FFFF01FFFFC1
:1048EC0001FFFF01FFFF010080010080010080013A
:1048FC000080010080010080010080010080010027
:10490C00800100000000000000000000000000001A
:10491C00000000000000000000000000000000008B
:10492C0000000018000000FFFF01FFFF01FFFF0166
:10493C000700003F0000FF0100FF0700FE3F00F0F2
:10494C00FF00C0FF0100FE0100F80100F800003F6D
:10495C0000C00700F800003E0000070000FFFF0148
:10496C00FFFF01FFFF01FFFF01FFFF01000000003F
:10497C00000013000000FFFF01FFFF01FFFF010F0C
:10498C0000001F00007F0000FF0100FE0300F80F75
:10499C0000E03F00C07F0000FF0100FE0100F801B5
:1049AC0000E001FFFF01FFFF01FFFF01000000001D
:1049BC0000000000000000000000000000000000EB
:1049CC000012000000FEFF00FFFF01FFFF01FFFFD0
:1049DC0001FFFF01038001038001038001038001BB
:1049EC00038001038001038001FFFF01FFFF01FF32
:1049FC00FF01FFFF01FEFF000000000000000000AF
:104A0C00000000000000000000000000000000009A
:104A1C0012000000FFFF01FFFF01FFFF01FFFF017C
:104A2C00FFFF010306000306000306000306000354
:104A3C000600030600030600FF0700FF0700FF0740
:104A4C0000FE0300FE030000000000000000000058
:104A5C000000000000000000000000000000001238
:104A6C00000000FEFF00FFFF01FFFF01FFFF01FF41
:104A7C00FF0103800103800103B00103F00103E097
:104A8C0001038007038007FFFF05FFFF01FFFF0104
:104A9C00FFFF01FEFF00000000000000000000000E
:104AAC0000000000000000000000000000001300E7
:104ABC000000FFFF01FFFF01FFFF01FFFF01FFFFF0
:104ACC00018301008301008301008301008307003F
:104ADC00831F0083FF00FFFF01FFFF01FFFF01FFAA
:104AEC00E101FE8101000001000000000000000057
:104AFC000000000000000000000000000011000099
:104B0C0000FE8101FF8301FF8301FF8301FF83010D
:104B1C00E38301E38301E38301E38301E38301E3A3
:104B2C008301E3FF01E3FF01E3FF01E3FF01C3FFA7
:104B3C000000000000000000000000000000000069
:104B4C000000000000000000000000001003000046
:104B5C00030000030000030000030000FFFF01FF3F
:104B6C00FF01FFFF01FFFF01FFFF01030000030036
:104B7C00000300000300000300000300000000001D
:104B8C000000000000000000000000000000000019
:104B9C00000000000000000000000012000000FFF8
:104BAC00FF00FFFF01FFFF01FFFF01FFFF0100807E
:104BBC000100800100800100800100800100800163
:104BCC00008001008001008001FFFF01FFFF01FF59
:104BDC00FF000000000000000000000000000000CA
:104BEC0000000000000000000000120700001F0081
:104BFC0000FF0000FF0300FF1F00FC7F00F0FF011F
:104C0C0080FF0100FE0100F00100F001007E008039
:104C1C001F00F00300FF00001F0000070000010050
:104C2C000000000000000000000000000000000078
:104C3C000000000000000000001A0F0000FF000040
:104C4C00FF0700FF3F00FFFF01F8FF0180FF01009D
:104C5C00FC0100E00100FE01E01F00FF03003F002B
:104C6C0000FF0100FF1F00FFFF00FCFF01C0FF0160
:104C7C0000FE0100E00100FC01C07F00FD07007F89
:104C8C0000000F00000100001201800103C0010FA1
:104C9C00E0011F70007F3800FF1C00FF0F00FC07B5
:104CAC0000F80F00E03F00F07F0078FF011CFC01D2
:104CBC000FF80107F00103C00101800100000100A1
:104CCC0000000000000000000000000000000000D8
:104CDC0000000000000000130100000300000F00A2
:104CEC00001F00003F0000FF0000FF0100FCFF015F
:104CFC00F8FF01E0FF01C0FF01C0FF01E0010078F7
:104D0C0000003C00000F0000070000030000010041
:104D1C000000000000000000000000000000000087
:104D2C000000000000001100000103800103E001FD
:104D3C0003F00103FC0103FE0183FF01E3FF01F318
:104D4C009F01FF8F01FF8301FF81017F80011F8085
:104D5C00010F800103800101000000000000000031
:104D6C000000000000000000000000000000000037
:104D7C000000000000000000DD420008161430396D
:104D8C007B4500081A14415AA44D00080E0F305AE6
:104D9C00835200080E09305A07FC01FE0307070373
:104DAC00060707FE03FC01000000000000000000E5
:104DBC00000000000006000018000C000600FF07B1
:104DCC00FF070000000000000000000000000000D1
:104DDC000000070C060E078307C30663063F061E7A
:104DEC0006000000000000000000000000000007AA
:104DFC0086018703030733063306FF03CE01000049
:104E0C0000000000000000000000000007C001E0EE
:104E1C0001B8018E01FF07FF0780010000000000B0
:104E2C0000000000000000000007B801BF031F07CE
:104E3C001B061B06F303E30100000000000000004A
:104E4C0000000000000007FC01FE033706330633A8
:104E5C0006F703E60100000000000000000000005F
:104E6C000000000703000307E307FB001F00070017
:104E7C000300000000000000000000000000000023
:104E8C0007CC01FE03330633063306FE03CC0100C8
:104E9C0000000000000000000000000000073C03C0
:104EAC007E07630663066307FE03FC010000000037
:104EBC0000000000000000000000050000000000E1
:104ECC0000000000000000000000000000000000D6
:104EDC00000000000000000300001816180E00006F
:104EEC0000000000000000000000000000000000B6
:104EFC00000000000760006000F000F000980198CE
:104F0C00010C030000000000000000000000000085
:104F1C000008D800D800D800D800D800D800D80095
:104F2C00D800000000000000000000000000070C8A
:104F3C000398019801F000F0006000600000000090
:104F4C000000000000000000000000080400060043
:104F5C000300C306E30673003E001C0000000000C3
:104F6C0000000000000000000EE007F81F1C3CCE03
:104F7C0033F6773B661B661B63F367FB671F360EC6
:104F8C0033FC19F808090007E007FC00DF00C30038
:104F9C00DF00FC00E007000700000000000000003C
:104FAC0000000A0000FF07FF073306330633063301
:104FBC00063306FF07EE0300000000000000000AA5
:104FCC000000F800FE0306030306030603060707AA
:104FDC008E03040100000000000000000A0000FF26
:104FEC0007FF0703060306030603060603FE03F882
:104FFC00000000000000000000090000FF07FF0790
:10500C00330633063306330633063306000000003E
:10501C00000000000000080000FF07FF073300330A
:10502C00003300330003000000000000000000000B
:10503C000000000B0000F800FE0306030306030645
:10504C00630663066707EE03E4010000000000003E
:10505C000A0000FF07FF073000300030003000303E
:10506C0000FF07FF07000000000000000003000025
:10507C00FF07FF0700000000000000000000000018
:10508C000000000000000000000007800180030009
:10509C000700060006FF03FF0100000000000000EF
:1050AC00000000000000000A0000FF07FF0760007E
:1050BC0030003800FC00C6030307010600000000A6
:1050CC0000000000080000FF07FF070006000600B4
:1050DC0006000600060000000000000000000000B2
:1050EC00000C0000FF07FF070F007C00E0038007A7
:1050FC00E0037C000F00FF07FF07000000000A0020
:10510C0000FF07FF070E003C007000C0018003FF8A
:10511C0007FF0700000000000000000B0000F80073
:10512C00FE03060303060306030603060603FE033B
:10513C00F800000000000000090000FF07FF0763F3
:10514C00006300630063003F001E000000000000CD
:10515C0000000000000B0000F800FE03060303062D
:10516C008306830703030607FE0FF8080000000000
:10517C0000000B0000FF07FF07630063006300E300
:10518C0000E301BF071E0700040000000000000937
:10519C0000001C033E033306330673066306E60366
:1051AC00C601000000000000000000000900000320
:1051BC000003000300FF07FF0703000300030000C8
:1051CC000000000000000000000A0000FF01FF03C7
:1051DC0000070006000600060007FF03FF010000A1
:1051EC000000000000000903001F00FC00E00700A5
:1051FC0007E007FC001F0003000000000000000097
:10520C000000000D0700FF00FC070007F8077F00F7
:10521C0007007F00F8070007FC07FF0007000000ED
:10522C0009000003060707DE03F800F800DE030799
:10523C000703060000000000000000000009000049
:10524C0003000F001C00F807F8071C000F000300F8
:10525C00000000000000000000000803068307C3E4
:10526C0007F3063B061F06070603060000000000B6
:10527C00000000000000000A3C007E00C30081001A
:10528C00810081008100C3007E003C000000000012
:10529C000000000005000000000000FF00FF0000FF
:1052AC0000000000000000000000000000000000F2
:1052BC000009E100F10091009100910091009F0024
:1052CC009F008E000000000000000000000009009C
:1052DC0000810089008900890089008900FF00761F
:1052EC000000000000000000000000093000380041
:1052FC003C002E0027002300FF00FF0020000000D0
:10530C0000000000000000000900008F008F0089E1
:10531C0000890089008900F900700000000000007D
:10532C000000000000093C007E00FF00C90089005D
:10533C0089008900F90070000000000000000000E6
:10534C0000000900008100C100E100710039000D6E
:10535C00000700030000000000000000000000092E
:10536C006E00FF0091009100910091009100FF00F0
:10537C006E00000000000000000000000886008F96
:10538C0000890089008900CB00FF007E000000002E
:10539C0000000000000000000004000000000000FD
:1053AC0000000000000000000000000000000000F1
:1053BC0000000000000002880088000000000000CF
:1053CC0000000000000000000000000000000000D1
:1053DC00000000051000180038002C00240000000C
:1053EC0000000000000000000000000000000000B1
:1053FC000518001800180018001800000000000024
:10540C000000000000000000000000000005240067
:10541C002C003800180010000000000000000000F4
:10542C000000000000000000000008B100B90009F5
:10543C00000900090009000F000600000000000030
:10544C0000000000000000097000FC00FE017A0161
:10545C004A017A017E017C00380000000000000047
:10546C0000000000098000F0007C003F0027003F96
:10547C00007C00F000800000000000000000000034
:10548C000008FF00FF009100910091009100FF00C7
:10549C006E00000000000000000000000000073C4F
:1054AC00007E00C3008100810081008100000000AB
:1054BC00000000000000000000000008FF00FF00DA
:1054CC00810081008100C300FF007E00000000000D
:1054DC000000000000000000083C007E00D300919A
:1054EC00009100910091009100000000000000006C
:1054FC00000000000008FE00FE0013001100110067
:10550C00110011001100000000000000000000005C
:10551C000000093C007E00C30089008900890089D5
:10552C0000F900F900000000000000000000000875
:10553C00FF00FF001000100010001000FF00FF0023
:10554C0000000000000000000000000002FF00FF4F
:10555C00000000000000000000000000000000003F
:10556C0000000000000000000008800080008000A7
:10557C0080008000C000FF007F00000000000000E1
:10558C0000000000000007FF00FF003C007E00FF51
:10559C0000E300C10000000000000000000000005B
:1055AC00000000077F00FF00C0008000800080002A
:1055BC00800000000000000000000000000000005F
:1055CC000BFF00FF001F003C00F000C000F0003C8F
:1055DC00000F00FF00FF00000000000000097F002A
:1055EC007F0007000F003E00F800E000FF00FF0006
:1055FC0000000000000000000000093C007E00C319
:10560C0000810081008100C3007E003C000000008E
:10561C000000000000000009FF00FF001100110055
:10562C00110011001B001F000E0000000000000004
:10563C0000000000093C007E00C300810081008155
:10564C0000C300FE00FC0000000000000000000091
:10565C000009FF00FF000900090039007900F9007A
:10566C00CF008600000000000000000000000906CA
:10567C00008F0089008900890089008900F9007178
:10568C000000000000000000000000080100010004
:10569C000100FF00FF0001000100010000000000FC
:1056AC000000000000000000097F00FF00C0008027
:1056BC000080008000C000FF007F000000000000A0
:1056CC0000000000000A000003000F003E00F00084
:1056DC00E000F0003E000F0003000000000000009E
:1056EC0000000E01000F003F00FC00F000F8003F2E
:1056FC00001F003F00F800F000FF001F000300092E
:10570C0000008100E700FF003C007E00FF00C300AA
:10571C0081000000000000000000000008010003F0
:10572C00000F00FC00FC000F000300010000000053
:10573C0000000000000000000009C100E100F100C1
:10574C00F900BD009F008F0087008300000000005F
:10575C00000000000000232D302B2000686C4C0052
:10576C006566674546470030313233343536373855
:10577C0039414243444546003031323334353637B3
:0C578C003839616263646566000000004B
:04579800E90000081C
:04579C00C100000840
:1057A00000127A00060645452B352B35AE4200081F
:1057B0009B42000810030000A74200089B4200081B
:1057C000110300003A4200085E4200082203000074
:1057D0003A42000859420008230300004E420008E4
:1057E00053420008240700003A42000847420008DC
:1057F000250700003342000841420008260300004C
:10580000334200083A42000827070000A04200087F
:105810009B42000812030000944200089B420008CB
:1058200013030000864200088D420008540F000058
:10583000814200087C4200081503000076420008FF
:105840007C420008160300004E4200083A4200085D
:1058500017070000694200086F420008200300009B
:105860003A42000863420008210300000C000020B7
:10587000180000206C000020780000208400002028
:10588000900000209C000020A8000020B400002010
:10589000C000002024000020300000203C00002038
:1058A000480000205400002060000020100100206B
:1058B00000000000000000000000000000000000E8
:1058C00000000000000000000000000000000000D8
:1058D00000000000000000000000000000000000C8
:1058E00000000000000000000000000000000000B8
:1058F00000000000000000000000000000000000A8
:105900000000000000000000000000000000000097
:04000005080038A90E
:00000001FF
